{
  "contractName": "Voting",
  "abi": [
    {
      "constant": false,
      "inputs": [
        {
          "name": "_candidates",
          "type": "bytes32[]"
        }
      ],
      "name": "createVoting",
      "outputs": [],
      "payable": false,
      "stateMutability": "nonpayable",
      "type": "function"
    },
    {
      "constant": false,
      "inputs": [
        {
          "name": "_person",
          "type": "bytes32"
        }
      ],
      "name": "votingToPerson",
      "outputs": [],
      "payable": false,
      "stateMutability": "nonpayable",
      "type": "function"
    },
    {
      "constant": true,
      "inputs": [
        {
          "name": "_person",
          "type": "bytes32"
        }
      ],
      "name": "votingTotalPerson",
      "outputs": [
        {
          "name": "",
          "type": "uint256"
        }
      ],
      "payable": false,
      "stateMutability": "view",
      "type": "function"
    },
    {
      "constant": true,
      "inputs": [
        {
          "name": "_num",
          "type": "uint256"
        }
      ],
      "name": "getNum",
      "outputs": [
        {
          "name": "",
          "type": "uint256"
        }
      ],
      "payable": false,
      "stateMutability": "pure",
      "type": "function"
    }
  ],
  "bytecode": "0x608060405234801561001057600080fd5b5061033e806100206000396000f3fe608060405234801561001057600080fd5b506004361061004c5760003560e01c8063ae7d165c14610051578063d4c5165114610109578063f3358ac41461014b578063fa53aa181461018d575b600080fd5b6101076004803603602081101561006757600080fd5b810190808035906020019064010000000081111561008457600080fd5b82018360208201111561009657600080fd5b803590602001918460208302840111640100000000831117156100b857600080fd5b919080806020026020016040519081016040528093929190818152602001838360200280828437600081840152601f19601f8201169050808301925050505050505091929192905050506101bb565b005b6101356004803603602081101561011f57600080fd5b81019080803590602001909291905050506101d5565b6040518082815260200191505060405180910390f35b6101776004803603602081101561016157600080fd5b8101908080359060200190929190505050610204565b6040518082815260200191505060405180910390f35b6101b9600480360360208110156101a357600080fd5b8101908080359060200190929190505050610214565b005b80600090805190602001906101d19291906102a0565b5050565b60006101e08261024a565b6101e957600080fd5b60016000838152602001908152602001600020549050919050565b6000816001019150819050919050565b61021d8161024a565b61022657600080fd5b60018060008381526020019081526020016000206000828254019250508190555050565b600080600090505b60008054905081101561029557826000828154811061026d57fe5b9060005260206000200154141561028857600191505061029b565b8080600101915050610252565b50600090505b919050565b8280548282559060005260206000209081019282156102dc579160200282015b828111156102db5782518255916020019190600101906102c0565b5b5090506102e991906102ed565b5090565b61030f91905b8082111561030b5760008160009055506001016102f3565b5090565b9056fea165627a7a72305820f9069e0efcb2391a8105d4dbc4a9fcdf3ee78be3d1264154c75e865831dc024c0029",
  "source": "//声明solidity编译所需版本号\npragma solidity ^0.5.0;\n// 创建名为Voting的合约\ncontract Voting{\n    // 创建名为candidates的bytes32数组\n    bytes32 [] candidates;\n    // 创建名为candidatesVotingCount的映射，键为bytes32值为uint\n    mapping(bytes32 => uint) candidatesVotingCount;\n    // 初始化合约，创建候选人数组\n    function createVoting(bytes32[] memory _candidates) public {\n        candidates = _candidates;\n    }\n    // 通过映射，增加候选人票数\n    function votingToPerson(bytes32 _person) public {\n        // 断言是否为真，否则中断执行\n        require(isValidToPerson(_person));\n        // 映射中候选人票数自加1\n        candidatesVotingCount[_person] += 1;\n    }\n    // 通过映射，查询候选人总票数\n    function votingTotalPerson(bytes32 _person) public view returns(uint) {\n        // 断言是否为真，否则中断执行\n        require(isValidToPerson(_person));\n        // 返回映射中候选人票数\n        return candidatesVotingCount[_person];\n    }\n    // 是否为映射中存在的候选人\n    function isValidToPerson(bytes32 _person) private view returns(bool) {\n        for(uint i = 0; i < candidates.length; i++) {\n            if(candidates[i]==_person) {\n                return true;\n            }\n        }\n        return false;\n    }\n    // 测试返回数据方法\n    function getNum(uint _num) public pure returns(uint) {\n        return ++ _num;\n    }\n}",
  "sourcePath": "/Users/zhiqiang/Desktop/matrix-block-chain/contracts/Voting.sol",
  "compiler": {
    "name": "solc",
    "version": "0.5.8+commit.23d335f2.Emscripten.clang"
  },
  "schemaVersion": "3.0.12",
  "updatedAt": "2019-08-27T07:43:04.470Z",
  "devdoc": {
    "methods": {}
  },
  "userdoc": {
    "methods": {}
  }
}